:100000000C9462000C948A000C948A000C948A0070
:100010000C948A000C948A000C948A000C948A0038
:100020000C948A000C948A000C948A000C948A0028
:100030000C948A000C948A000C948A000C948A0018
:100040000C9486050C948A000C94F6050C94D0054B
:100050000C948A000C948A000C948A000C948A00F8
:100060000C948A000C948A000000000024002700F1
:100070002A0000000000250028002B0000000000DE
:1000800023002600290004040404040404040202DA
:100090000202020203030303030301020408102007
:1000A0004080010204081020010204081020000012
:1000B0000008000201000003040700000000000027
:1000C0000000280611241FBECFEFD8E0DEBFCDBF51
:1000D00011E0A0E0B1E0E8E6FAE102C005900D927F
:1000E000A83CB107D9F722E0A8ECB1E001C01D920D
:1000F000A13AB207E1F710E0C2E6D0E004C02197D0
:10010000FE010E94C409C136D107C9F70E948406C6
:100110000C94320D0C940000833081F028F481306F
:1001200099F08230A9F008958730A9F08830C9F09D
:100130008430B1F4809180008F7D03C08091800075
:100140008F7780938000089584B58F7784BD08955C
:1001500084B58F7DFBCF8091B0008F778093B00006
:1001600008958091B0008F7DF9CFCF93DF93282F32
:1001700030E0F901E255FF4F8491F901E656FF4F57
:10018000D491F901EA57FF4FC491CC23A1F081111A
:100190000E948C00EC2FF0E0EE0FFF1FE458FF4FA1
:1001A000A591B491EC91ED2381E090E009F480E019
:1001B000DF91CF91089580E090E0FACF1F93CF9325
:1001C000DF93282F30E0F901E255FF4F8491F901C8
:1001D000E656FF4FD491F901EA57FF4FC491CC2363
:1001E000A9F0162F81110E948C00EC2FF0E0EE0F89
:1001F000FF1FEE58FF4FA591B4918FB7F894EC9183
:10020000111108C0D095DE23DC938FBFDF91CF9111
:100210001F910895DE2BF8CFCF93DF9390E0FC0180
:10022000E656FF4F24918A579F4FFC018491882303
:10023000D1F090E0880F991FFC01E859FF4FA5917C
:10024000B491FC01EE58FF4FC591D49161110EC0DD
:100250009FB7F8948C91E22FE0958E238C932881A0
:10026000E223E8839FBFDF91CF9108958FB7F89481
:10027000EC91E22BEC938FBFF6CF3FB7F8948091CF
:10028000D7019091D801A091D901B091DA0126B59A
:10029000A89B05C02F3F19F00196A11DB11D3FBFBE
:1002A000BA2FA92F982F8827BC01CD01620F711D8D
:1002B000811D911D42E0660F771F881F991F4A9587
:1002C000D1F708958F929F92AF92BF92CF92DF9213
:1002D000EF92FF926B017C010E943D014B015C019A
:1002E000C114D104E104F104B9F00E943D01681980
:1002F00079098A099B09683E73408105910580F35D
:1003000021E0C21AD108E108F10888EE880E83E0E6
:10031000981EA11CB11CE4CFFF90EF90DF90CF900E
:10032000BF90AF909F908F900895AF92BF92CF9261
:10033000DF92EF92FF920F931F93CF93DF936C01A5
:100340007B018B01040F151FEB015E01AE18BF0886
:10035000C017D10759F06991D601ED91FC91019038
:10036000F081E02DC6010995892B79F7C501DF9150
:10037000CF911F910F91FF90EF90DF90CF90BF90A2
:10038000AF900895FC01538D448D252F30E0842FCC
:1003900090E0821B930B541710F0CF9608950197AD
:1003A0000895FC01918D828D981761F0A28DAE0F9A
:1003B000BF2FB11D5D968C91928D9F5F9F73928F21
:1003C00090E008958FEF9FEF0895FC01918D828D4D
:1003D000981731F0828DE80FF11D858D90E008951A
:1003E0008FEF9FEF0895FC01918D228D892F90E072
:1003F000805C9F4F821B91098F73992708958BED25
:1004000091E00E94F30121E0892B09F420E0822F82
:10041000089580E090E0892B29F00E94FF0181116E
:100420000C9400000895FC01A48DA80FB92FB11DF4
:10043000A35ABF4F2C91848D90E001968F7399271A
:10044000848FA689B7892C93A089B1898C918370F8
:1004500080648C93938D848D981306C00288F389F1
:10046000E02D80818F7D80830895EF92FF920F931E
:100470001F93CF93DF93EC0181E0888F9B8D8C8D50
:1004800098131AC0E889F989808185FF15C09FB744
:10049000F894EE89FF896083E889F9898081837007
:1004A000806480839FBF81E090E0DF91CF911F91B6
:1004B0000F91FF90EF900895F62E0B8D10E00F5FD7
:1004C0001F4F0F731127E02E8C8D8E110CC00FB6AD
:1004D00007FCFACFE889F989808185FFF5CFCE0145
:1004E0000E941302F1CFEB8DEC0FFD2FF11DE35AAB
:1004F000FF4FF0829FB7F8940B8FEA89FB898081C8
:100500008062CFCFCF93DF93EC01888D8823B9F041
:10051000AA89BB89E889F9898C9185FD03C080810E
:1005200086FD0DC00FB607FCF7CF8C9185FFF2CF8B
:10053000808185FFEDCFCE010E941302E9CFDF91CC
:10054000CF9108950895089590E080E00895FF9276
:100550000F931F93CF93DF93F82E062FC7E0D0E0C1
:1005600010E061E0802F0E94DE008F2D0E94B50018
:100570000C2E01C0880F0A94EAF7182B60E0802F38
:100580000E94DE00219768F7812FDF91CF911F91A4
:100590000F91FF900895EF92FF920F931F93CF93C7
:1005A000DF93809193020E94B500892B31F060E0C7
:1005B00070E0CB010E946201F4CFDFB7F894609144
:1005C0009202809193020E94A702082F60919202EA
:1005D000809193020E94A702C82F6091920280919D
:1005E00093020E94A702182FF12CE12C8091940213
:1005F0008E151F0479F070F061E0809192020E94E4
:10060000DE0060E0809192020E94DE008FEFE81A27
:10061000F80AECCFDFBF6C2F70E090E080E0982FFD
:10062000872F762F6627802B612B000F000B10E0A1
:1006300030E020E0302F222711270027602B712B7C
:10064000822B932BDF91CF911F910F91FF90EF9011
:100650000895CF92DF92EF92FF92CF93CAE0C12C20
:10066000D12C76010E94CB02C60ED71EE81EF91EC1
:1006700060E070E0CB010E946201C15099F7C701B0
:10068000B6012AE030E040E050E00E94A509CA012E
:10069000B9010E94E60A0E94AE0A60939502709327
:1006A00096028093970290939802CF91FF90EF90DB
:1006B000DF90CF900895CF93DF93EC0160E08E81BF
:1006C0000E94DE0061E08E810E94DE0060E08E818B
:1006D0000E94DE008BE891E00197F1F7DF91CF9166
:1006E0000895CF92DF92EF92FF920F931F93CF93D3
:1006F000DF936C017C0187E0E80EF11CD0E0C0E0E4
:10070000062F10E0B8010C2E02C0759567950A946B
:10071000E2F76170F70181917F010E94DE0021966E
:10072000C430D10579F7C601DF91CF911F910F91A8
:10073000FF90EF90DF90CF900C945B03CF92DF920D
:10074000EF92FF920F931F93CF93DF93EC01F62E5E
:10075000642F8C810E94DE008D818F3F19F060E054
:100760000E94DE000F2D10E08F8584FF25C06E01F2
:1007700087E0C80ED11CF12CE12CB8010E2C02C070
:10078000759567950A94E2F76170F60181916F01A2
:100790000E94DE00FFEFEF1AFF0A88E0E816F1047E
:1007A00061F7CE01DF91CF911F910F91FF90EF90F4
:1007B000DF90CF900C945B03B80184E0759567954A
:1007C0008A95E1F7CE010E9471036F2DCE01DF9172
:1007D000CF911F910F91FF90EF90DF90CF900C94ED
:1007E000710340E0682F88E792E00C949E0390919B
:1007F0008B02691710F06FEF690FE62FF0E0E858F1
:10080000FD4F9489890F80680C94F10381E00E9468
:10081000F1038BE39FE10197F1F70895CF93DF9305
:10082000823029F490918702986090938702809398
:100830008B0210928C0280E480938D0280E1809381
:100840008E0280E580938F0261E080917C020E949D
:100850000C0180917D028F3F19F061E00E940C0134
:1008600061E080917E020E940C01C8E7D2E09E0107
:10087000285732408091870284FD0BC084E090E0CD
:1008800021962817390744F461E08E810E940C01FB
:10089000EECF88E090E0F4CF8BE39DE00197F1F795
:1008A00060E080917C020E94DE0060E080917E0228
:1008B0000E94DE0080917D028F3F19F060E00E946F
:1008C000DE008091870284FD34C063E088E792E017
:1008D0000E947103CBE4D6E4CE010197F1F763E007
:1008E00088E792E00E9471032197F1F763E088E7BF
:1008F00092E00E94710383E592E00197F1F762E0D4
:1009000088E792E00E9471038091870280620E94D2
:10091000F10384E0809388028CE00E94F1030E943E
:10092000060482E08093890286E0DF91CF910C94E7
:10093000F10380620E94F1038BE496E40197F1F7E2
:100940008091870280620E94F10383E592E0019723
:10095000F1F78091870280620E94F103D5CF41E0D8
:100960000E949E0381E090E008950F931F93CF9320
:10097000DF938B0128E0829FC001112480640E94D4
:10098000F103E801085F1F4F699188E792E00E9438
:10099000AF04C017D107C1F7DF91CF911F910F911D
:1009A0000895FC0101900020E9F73197AF01481B41
:1009B000590BBC0188E792E00C9495018F929F92AD
:1009C000AF92BF920F931F93CF93DF93CDB7DEB754
:1009D000A1970FB6F894DEBF0FBECDBF19A242306B
:1009E00008F44AE08E010F5D1F4F842E912CB12C2C
:1009F000A12CA50194010E948309E62FB901CA0127
:100A0000EA30F4F4E05DD801EE938D01232B242B22
:100A1000252B79F790E080E0109719F0CD010E9426
:100A2000D104A1960FB6F894DEBF0FBECDBFDF9103
:100A3000CF911F910F91BF90AF909F908F9008958D
:100A4000E95CE1CF0C94D1040E94060460E082E0EE
:100A50000E94F70365E088E792E00E94AF048DE60C
:100A600091E00E94220567E088E792E00E94AF04CF
:100A700081E791E00E94220566E088E792E00E940B
:100A8000AF0487E791E00C9422050E94060460E021
:100A900081E00E94F7038FE691E00E94220560E06A
:100AA00088E792E00E94AF048DE791E00E94220562
:100AB00064E088E792E00E94AF048AEA91E00E9435
:100AC000220582E891E00E94220561E088E792E039
:100AD0000E94AF0463E088E792E00E94AF0485E8DB
:100AE00091E00E94220561E080E00E94F70388E81F
:100AF00091E00E94220567E088E792E00E94AF043F
:100B000087E991E00C9422050C94A90C1F920F9296
:100B10000FB60F9211242F933F938F939F93AF9310
:100B2000BF938091D3019091D401A091D501B09150
:100B3000D6013091D20123E0230F2D3758F50196CD
:100B4000A11DB11D2093D2018093D3019093D401B4
:100B5000A093D501B093D6018091D7019091D8018F
:100B6000A091D901B091DA010196A11DB11D809328
:100B7000D7019093D801A093D901B093DA01BF9126
:100B8000AF919F918F913F912F910F900FBE0F903A
:100B90001F90189526E8230F0296A11DB11DD2CFF4
:100BA0001F920F920FB60F9211242F933F934F93E2
:100BB0005F936F937F938F939F93AF93BF93EF93C5
:100BC000FF938BED91E00E941302FF91EF91BF9193
:100BD000AF919F918F917F916F915F914F913F91D5
:100BE0002F910F900FBE0F901F9018951F920F928C
:100BF0000FB60F9211242F938F939F93EF93FF9330
:100C0000E091EB01F091EC018081E091F101F09134
:100C1000F20182FD1BC090818091F4018F5F8F7380
:100C20002091F501821741F0E091F401F0E0E552E6
:100C3000FE4F958F8093F401FF91EF919F918F91DB
:100C40002F910F900FBE0F901F9018958081F4CFB9
:100C5000EBEDF1E01382128288EE93E0A0E0B0E0C9
:100C600084839583A683B7838BE491E0918380830B
:100C700085EC90E09587848784EC90E09787868761
:100C800080EC90E0918B808B81EC90E0938B828B59
:100C900082EC90E0958B848B86EC90E0978B868B32
:100CA000118E128E138E148EE0E9F2E089E691E047
:100CB00091838083158216821782108680E090E0EF
:100CC000A0E8BFE381879287A387B487E8E7F2E0D3
:100CD000138212828DE591E09183808388E0848382
:100CE0008FEF858389E0868384E0878385E0808732
:100CF00086E0818787E082871386148615861686AC
:100D0000178681E00C940E04789484B5826084BDCB
:100D100084B5816084BD85B5826085BD85B58160FF
:100D200085BD80916E00816080936E00109281007D
:100D30008091810082608093810080918100816038
:100D400080938100809180008160809380008091F9
:100D5000B10084608093B1008091B0008160809385
:100D6000B00080917A00846080937A0080917A004C
:100D7000826080937A0080917A00816080937A000B
:100D800080917A00806880937A001092C100E0918F
:100D9000EB01F091EC0192E09083E091E701F0919A
:100DA000E8011082E091E901F091EA018FEC808383
:100DB0001092F301E091EF01F091F00186E0808361
:100DC000E091ED01F091EE01808180618083E091FE
:100DD000ED01F091EE01808188608083E091ED016A
:100DE000F091EE01808180688083E091ED01F091C7
:100DF000EE0180818F7D80839093920283E08093C7
:100E0000930261E082E00E940C0160E08091930215
:100E10000E940C0181E08093940280E098E6A4E5B2
:100E2000B6E48093990290939A02A0939B02B093A8
:100E30009C0282E00E940E0468E371E080E00E9460
:100E4000B50460E371E081E00E94B50468E271E0FE
:100E500082E00E94B50460E271E083E00E94B50484
:100E600068E171E084E00E94B50460E171E085E032
:100E70000E94B50468E071E086E00E94B50460E07D
:100E800071E087E00E94B50461E08BE00E940C01F4
:100E900060E08BE00E94DE000E9445053AE0832E70
:100EA000912CA12CB12C22242394312C03E010E0AE
:100EB000C2E0D0E020E4C22EC0927C0080917A0093
:100EC000806480937A0080917A0086FDFCCF8091C7
:100ED000780090917900823391050CF4F8C1883C38
:100EE00091050CF4A5C0803921E092070CF484C070
:100EF000883522E092070CF49EC0803293400CF0BB
:100F00009DC085E090E02091D0013091D101232B4C
:100F100009F0AAC08530910509F093C03092D10143
:100F20002092D0010E9429030E94240561E08BE0F9
:100F30000E94DE0068EC70E080E090E00E946201B8
:100F40002FB7F8948091D3019091D401A091D5014D
:100F5000B091D6012FBF4091CC015091CD0160914D
:100F6000CE017091CF01841B950BA60BB70B853F6B
:100F70009140A105B10588F12FB7F8948091D30174
:100F80009091D401A091D501B091D6012FBF80934B
:100F9000CC019093CD01A093CE01B093CF01F090FE
:100FA000400181E0F826F092400160E08FE00E946D
:100FB000F7038AEA91E0FF2011F089E991E00E94AD
:100FC000220560E080E00E94F703809140018111DA
:100FD00048C08AEA91E00E94220580E0E82E80E085
:100FE000F82EEF2809F466CF0E94FF01882309F448
:100FF00061CF0E9400005ECF60E08BE00E94DE00C7
:101000001092D1011092D0010E94450564E670E073
:1010100080E090E00E946201E0CF0E94450564EF0D
:1010200071E080E090E00E94620181E090E06BCF8F
:1010300082E090E068CF84E090E065CF90E080E0CF
:1010400062CF8430910529F4D093D101C093D001AF
:1010500069CF029709F074CF1093D1010093D001AA
:1010600061CF89E991E0B7CF9AE0792EC12CD12CDC
:1010700076010E94CB02C60ED71EE81EF91E60E064
:1010800070E0CB010E9462017A947110F2CFC70127
:10109000B601A50194010E94A50980919502909145
:1010A0009602A0919702B091980269017A01C81A3C
:1010B000D90AEA0AFB0AC701B6010E94E60A209192
:1010C000990230919A0240919B0250919C020E9499
:1010D0003C0A6B017C0120E030E0A9010E94370A44
:1010E00087FD58C0C092C801D092C901E092CA01E0
:1010F000F092CB0161E080E00E94F7038BE991E080
:101100000E94220561E080E00E94F703C090C801C0
:10111000D090C901E090CA01F090CB01A7019601DF
:10112000C701B6010E94080C8823E9F18CEA91E01E
:101130000E94D10488EB91E00E9422058091D001A9
:101140009091D10120E030E04CE951E481309105EB
:1011500031F00297D1F420E030E044EC51E46091AA
:10116000C8017091C9018091CA019091CB010E9480
:10117000960B87FD0AC060E08BE00E94DE001092B3
:10118000D1011092D0010E94450564E170E080E039
:1011900090E040CF1092C8011092C9011092CA018C
:1011A0001092CB01A7CF26013701E89477F82FEFF3
:1011B0003FEF4FE75FE7C301B2010E94080C8111C6
:1011C0000DC02FEF3FEF4FE75FE7C301B2010E9471
:1011D000370A18161CF480EB91E0AACF2FEF3FEFEF
:1011E0004FE75FE4C701B6010E94960B18161CF486
:1011F00084EB91E09DCF2FEF3FEF4FE75FECC7010E
:10120000B6010E94370A87FDF3CF20E030E0A90144
:10121000C701B6010E94370A87FF0AC041E06DE2AC
:1012200088E792E00E949E03F7FAF094F7F8F094B2
:101230002AE037ED43EA5BE3C701B6010E94CB0920
:101240002B013C010E94B50A6B017C010E94E40A5B
:101250009B01AC01C301B2010E94CA092B013C01F0
:101260004AE0C701B6010E94DE0441E06EE288E771
:1012700092E00E949E0320E030E040E251E4C3018E
:10128000B2010E949B0B2B013C010E94B50A6B012D
:10129000F12CE12C4AE0C701B6010E94DE04C7012F
:1012A000B6010E94E40A9B01AC01C301B2010E9495
:1012B000CA0920E030E040E251E40E949B0B0E940A
:1012C000B50A90E080E04AE00E94DE0433CF0E943D
:1012D00029030E94060460E083E00E94F7038CEB80
:1012E00091E00E94220564EF71E080E090E00E94AE
:1012F00062018091D0019091D101892B09F48DCEAA
:101300000E9424058CCEA1E21A2EAA1BBB1BFD0154
:101310000DC0AA1FBB1FEE1FFF1FA217B307E407D4
:10132000F50720F0A21BB30BE40BF50B661F771F2C
:10133000881F991F1A9469F760957095809590950C
:101340009B01AC01BD01CF010895052E97FB1EF452
:1013500000940E94BC0957FD07D00E94830907FC36
:1013600003D04EF40C94BC095095409530952195CE
:101370003F4F4F4F5F4F08959095809570956195C1
:101380007F4F8F4F9F4F0895EE0FFF1F0590F491F1
:10139000E02D09945058BB27AA270E94E2090C941B
:1013A0005C0B0E944E0B38F00E94550B20F039F474
:1013B0009F3F19F426F40C944B0B0EF4E095E7FBD9
:1013C0000C94450BE92F0E946D0B58F3BA17620776
:1013D00073078407950720F079F4A6F50C948F0B1A
:1013E0000EF4E0950B2EBA2FA02D0B01B901900140
:1013F0000C01CA01A0011124FF27591B99F0593F84
:1014000050F4503E68F11A16F040A22F232F342FCB
:101410004427585FF3CF469537952795A795F04019
:101420005395C9F77EF41F16BA0B620B730B840B2E
:10143000BAF09150A1F0FF0FBB1F661F771F881FE6
:10144000C2F70EC0BA0F621F731F841F48F487953E
:1014500077956795B795F7959E3F08F0B0CF939530
:10146000880F08F09927EE0F9795879508950E94A9
:10147000210B08F481E008950E94500A0C945C0B43
:101480000E94550B58F00E944E0B40F029F45F3F2C
:1014900029F00C94450B51110C94900B0C944B0BB0
:1014A0000E946D0B68F39923B1F3552391F3951BBB
:1014B000550BBB27AA2762177307840738F09F5F75
:1014C0005F4F220F331F441FAA1FA9F335D00E2EE2
:1014D0003AF0E0E832D091505040E695001CCAF74F
:1014E0002BD0FE2F29D0660F771F881FBB1F261712
:1014F00037074807AB07B0E809F0BB0B802DBF01E9
:10150000FF2793585F4F3AF09E3F510578F00C94B7
:10151000450B0C94900B5F3FE4F3983ED4F3869513
:1015200077956795B795F7959F5FC9F7880F911DD8
:101530009695879597F90895E1E0660F771F881FC4
:10154000BB1F621773078407BA0720F0621B730B77
:10155000840BBA0BEE1F88F7E09508950E94B50A38
:101560006894B1110C94900B08950E94750B88F04B
:101570009F5798F0B92F9927B751B0F0E1F0660F57
:10158000771F881F991F1AF0BA95C9F714C0B13098
:1015900091F00E948F0BB1E008950C948F0B672F90
:1015A000782F8827B85F39F0B93FCCF386957795C7
:1015B0006795B395D9F73EF49095809570956195B0
:1015C0007F4F8F4F9F4F0895E89409C097FB3EF4DB
:1015D00090958095709561957F4F8F4F9F4F992380
:1015E000A9F0F92F96E9BB279395F69587957795FE
:1015F0006795B795F111F8CFFAF4BB0F11F460FFBE
:101600001BC06F5F7F4F8F4F9F4F16C0882311F015
:1016100096E911C0772321F09EE8872F762F05C029
:10162000662371F096E8862F70E060E02AF09A95C4
:10163000660F771F881FDAF7880F9695879597F9B9
:101640000895990F0008550FAA0BE0E8FEEF161653
:101650001706E807F907C0F012161306E407F507A6
:1016600098F0621B730B840B950B39F40A2661F01A
:10167000232B242B252B21F408950A2609F4A140BD
:10168000A6958FEF811D811D089597F99F6780E8CA
:1016900070E060E008959FEF80EC089500240A94C4
:1016A0001616170618060906089500240A9412163D
:1016B0001306140605060895092E0394000C11F470
:1016C000882352F0BB0F40F4BF2B11F460FF04C01D
:1016D0006F5F7F4F8F4F9F4F089557FD9058440F76
:1016E000551F59F05F3F71F04795880F97FB991F81
:1016F00061F09F3F79F0879508951216130614063E
:10170000551FF2CF4695F1DF08C0161617061806CA
:10171000991FF1CF86957105610508940895E894A5
:10172000BB2766277727CB0197F908950E94210BE5
:1017300008F48FEF08950E94AE0B0C945C0B0E948E
:101740004E0B38F00E94550B20F0952311F00C94AD
:10175000450B0C944B0B11240C94900B0E946D0BB9
:1017600070F3959FC1F3950F50E0551F629FF001F4
:10177000729FBB27F00DB11D639FAA27F00DB11D0D
:10178000AA1F649F6627B00DA11D661F829F222796
:10179000B00DA11D621F739FB00DA11D621F839F1D
:1017A000A00D611D221F749F3327A00D611D231FF3
:1017B000849F600D211D822F762F6A2F11249F5741
:1017C00050409AF0F1F088234AF0EE0FFF1FBB1F44
:1017D000661F771F881F91505040A9F79E3F510503
:1017E00080F00C94450B0C94900B5F3FE4F3983E13
:1017F000D4F3869577956795B795F795E7959F5FAD
:10180000C1F7FE2B880F911D9695879597F908953E
:101810000E94210B880B990B08950F931F93CF9370
:10182000DF938230910510F482E090E0E0919F0216
:10183000F091A00230E020E0B0E0A0E0309799F411
:101840002115310509F44AC0281B390B2430310514
:10185000D8F58A819B816115710589F1FB0193831C
:101860008283FE0111C0408151810281138148179A
:101870005907E0F04817590799F4109761F012964C
:101880000C93129713961C933296CF01DF91CF9150
:101890001F910F91089500939F021093A002F4CF1F
:1018A0002115310551F04217530738F0A901DB012A
:1018B0009A01BD01DF01F801C1CFEF01F9CF90938B
:1018C000A00280939F02CDCFFE01E20FF31F819310
:1018D00091932250310939832883D7CF20919D02DB
:1018E00030919E02232B41F4209143013091440119
:1018F00030939E0220939D0220914101309142013C
:101900002115310541F42DB73EB740914501509165
:101910004601241B350BE0919D02F0919E02E217D7
:10192000F307A0F42E1B3F0B2817390778F0AC0102
:101930004E5F5F4F2417350748F04E0F5F1F5093DF
:101940009E0240939D02819391939FCFF0E0E0E04F
:101950009CCFCF93DF930097E9F0FC01329713827D
:101960001282A0919F02B091A002ED0130E020E030
:101970001097A1F420813181820F931F20919D0245
:1019800030919E022817390709F061C0F0939E023A
:10199000E0939D02DF91CF910895EA01CE17DF0712
:1019A000E8F54A815B819E0141155105B1F7E901D6
:1019B000FB83EA8349915991C40FD51FEC17FD07AA
:1019C00061F4808191810296840F951FE9019983CA
:1019D0008883828193819B838A83F0E0E0E0129682
:1019E0008D919C9113970097B9F52D913C9111978A
:1019F000CD010296820F931F20919D0230919E028D
:101A00002817390739F6309751F51092A002109235
:101A10009F02B0939E02A0939D02BCCFD383C2834A
:101A200040815181840F951FC817D90761F44E5F1B
:101A30005F4F88819981480F591F518340838A8164
:101A40009B81938382832115310509F0B0CFF093F8
:101A5000A002E0939F029ECFFD01DC01C0CF138264
:081A60001282D7CFF894FFCFEA
:101A68001111110F010101001F10101010101000AA
:101A78001F111111111111001010101E11111E004B
:101A880011131315151919001E11111E101010002D
:101A980015150E040E1515001F101E1111111E002C
:101AA800010000A10280000000000035029501C27B
:101AB800018202F301D101E50100000000AF0495A5
:101AC80001A402A30200000000A20284054F544FA3
:101AD80000484120424100413A2020200045504919
:101AE80054005045004D3A0032304C207C203235AD
:101AF8004C207C2050590048002A0020202020201B
:101B08002020202020202020202020006E616E0030
:101B1800696E66006F766600206B6700544150411D
:081B2800202D204F4B2100008D
:00000001FF
